{
  "contractName": "ChainLink",
  "abi": [
    {
      "constant": true,
      "inputs": [],
      "name": "lastQueryId",
      "outputs": [
        {
          "name": "",
          "type": "bytes32"
        }
      ],
      "payable": false,
      "stateMutability": "view",
      "type": "function"
    },
    {
      "constant": false,
      "inputs": [
        {
          "name": "maxReward_",
          "type": "uint256"
        }
      ],
      "name": "setMaxReward",
      "outputs": [],
      "payable": false,
      "stateMutability": "nonpayable",
      "type": "function"
    },
    {
      "constant": true,
      "inputs": [],
      "name": "bill",
      "outputs": [
        {
          "name": "",
          "type": "uint256"
        }
      ],
      "payable": false,
      "stateMutability": "view",
      "type": "function"
    },
    {
      "constant": true,
      "inputs": [],
      "name": "read",
      "outputs": [
        {
          "name": "",
          "type": "bytes32"
        }
      ],
      "payable": false,
      "stateMutability": "view",
      "type": "function"
    },
    {
      "constant": true,
      "inputs": [],
      "name": "peek",
      "outputs": [
        {
          "name": "",
          "type": "bytes32"
        },
        {
          "name": "",
          "type": "bool"
        }
      ],
      "payable": false,
      "stateMutability": "view",
      "type": "function"
    },
    {
      "constant": true,
      "inputs": [],
      "name": "DELAY",
      "outputs": [
        {
          "name": "",
          "type": "uint32"
        }
      ],
      "payable": false,
      "stateMutability": "view",
      "type": "function"
    },
    {
      "constant": true,
      "inputs": [],
      "name": "timeout",
      "outputs": [
        {
          "name": "",
          "type": "uint32"
        }
      ],
      "payable": false,
      "stateMutability": "view",
      "type": "function"
    },
    {
      "constant": false,
      "inputs": [
        {
          "name": "_requestId",
          "type": "bytes32"
        },
        {
          "name": "_price",
          "type": "uint256"
        }
      ],
      "name": "returnAssetPrice",
      "outputs": [],
      "payable": false,
      "stateMutability": "nonpayable",
      "type": "function"
    },
    {
      "constant": true,
      "inputs": [],
      "name": "turn",
      "outputs": [
        {
          "name": "",
          "type": "uint128"
        }
      ],
      "payable": false,
      "stateMutability": "view",
      "type": "function"
    },
    {
      "constant": false,
      "inputs": [
        {
          "name": "_requestId",
          "type": "bytes32"
        },
        {
          "name": "_price",
          "type": "uint256"
        }
      ],
      "name": "returnPaymentTokenPrice",
      "outputs": [],
      "payable": false,
      "stateMutability": "nonpayable",
      "type": "function"
    },
    {
      "constant": true,
      "inputs": [],
      "name": "paymentTokenPrice",
      "outputs": [
        {
          "name": "",
          "type": "uint128"
        }
      ],
      "payable": false,
      "stateMutability": "view",
      "type": "function"
    },
    {
      "constant": false,
      "inputs": [
        {
          "name": "payment_",
          "type": "uint128"
        },
        {
          "name": "token_",
          "type": "address"
        }
      ],
      "name": "update",
      "outputs": [],
      "payable": false,
      "stateMutability": "nonpayable",
      "type": "function"
    },
    {
      "constant": true,
      "inputs": [],
      "name": "expiry",
      "outputs": [
        {
          "name": "",
          "type": "uint32"
        }
      ],
      "payable": false,
      "stateMutability": "view",
      "type": "function"
    },
    {
      "constant": true,
      "inputs": [],
      "name": "prem",
      "outputs": [
        {
          "name": "",
          "type": "uint128"
        }
      ],
      "payable": false,
      "stateMutability": "view",
      "type": "function"
    },
    {
      "inputs": [
        {
          "name": "med_",
          "type": "address"
        },
        {
          "name": "link_",
          "type": "address"
        },
        {
          "name": "oracle_",
          "type": "address"
        }
      ],
      "payable": false,
      "stateMutability": "nonpayable",
      "type": "constructor"
    },
    {
      "anonymous": false,
      "inputs": [
        {
          "indexed": true,
          "name": "id",
          "type": "bytes32"
        }
      ],
      "name": "ChainlinkRequested",
      "type": "event"
    },
    {
      "anonymous": false,
      "inputs": [
        {
          "indexed": true,
          "name": "id",
          "type": "bytes32"
        }
      ],
      "name": "ChainlinkFulfilled",
      "type": "event"
    },
    {
      "anonymous": false,
      "inputs": [
        {
          "indexed": true,
          "name": "id",
          "type": "bytes32"
        }
      ],
      "name": "ChainlinkCancelled",
      "type": "event"
    }
  ],
  "bytecode": "0x6080604052600160045534801561001557600080fd5b50604051606080611b9083398101604090815281516020830151919092015160068054600160a060020a03808616600160a060020a031992831617909255600a805492851692909116919091179055828282610079826401000000006100c3810204565b61008b816401000000006100e5810204565b5050600c54600090815260096020526040902060010180546001608060020a031916671bc16d674ec800001790555061010792505050565b60028054600160a060020a031916600160a060020a0392909216919091179055565b60038054600160a060020a031916600160a060020a0392909216919091179055565b611a7a806101166000396000f3006080604052600436106100b65763ffffffff60e060020a60003504166303c7d29481146100bb57806325c33e13146100e2578063371e677a146100fc57806357de26a41461011157806359e02dd71461012657806369b411701461015457806370dea79a146101825780637f78fc7a146101975780638b299903146101b2578063c5a7f06c146101e3578063d0b3b8b2146101fe578063d4448a4c14610213578063e184c9be14610240578063fc8103e014610255575b600080fd5b3480156100c757600080fd5b506100d061026a565b60408051918252519081900360200190f35b3480156100ee57600080fd5b506100fa600435610270565b005b34801561010857600080fd5b506100d061028c565b34801561011d57600080fd5b506100d06102ad565b34801561013257600080fd5b5061013b6102d8565b6040805192835290151560208301528051918290030190f35b34801561016057600080fd5b506101696102fd565b6040805163ffffffff9092168252519081900360200190f35b34801561018e57600080fd5b50610169610303565b3480156101a357600080fd5b506100fa60043560243561032b565b3480156101be57600080fd5b506101c761043c565b604080516001608060020a039092168252519081900360200190f35b3480156101ef57600080fd5b506100fa600435602435610448565b34801561020a57600080fd5b506101c761055e565b34801561021f57600080fd5b506100fa6001608060020a0360043516600160a060020a0360243516610581565b34801561024c57600080fd5b5061016961075e565b34801561026157600080fd5b506101c7610771565b600c5481565b600654600160a060020a0316331461028757600080fd5b600b55565b600c546000908152600960205260409020600101546001608060020a031690565b60065460009060a060020a900463ffffffff1642106102c857fe5b506007546001608060020a031690565b6007546006546001608060020a039091169160a060020a90910463ffffffff16421090565b61038481565b6006547801000000000000000000000000000000000000000000000000900463ffffffff1681565b6000828152600560205260409020548290600160a060020a031633146103d857604080517f08c379a000000000000000000000000000000000000000000000000000000000815260206004820152602860248201527f536f75726365206d75737420626520746865206f7261636c65206f662074686560448201527f2072657175657374000000000000000000000000000000000000000000000000606482015290519081900360840190fd5b600081815260056020526040808220805473ffffffffffffffffffffffffffffffffffffffff191690555182917f7cc135e0cebb02c3480ae5d74d377283180a2601f8f644edf7987b009316c63a91a261043783834261a8c00161077d565b505050565b670e043da61725000081565b6000828152600560205260409020548290600160a060020a031633146104f557604080517f08c379a000000000000000000000000000000000000000000000000000000000815260206004820152602860248201527f536f75726365206d75737420626520746865206f7261636c65206f662074686560448201527f2072657175657374000000000000000000000000000000000000000000000000606482015290519081900360840190fd5b600081815260056020526040808220805473ffffffffffffffffffffffffffffffffffffffff191690555182917f7cc135e0cebb02c3480ae5d74d377283180a2601f8f644edf7987b009316c63a91a26000838152600d60205260409020546104379083610965565b60075470010000000000000000000000000000000090046001608060020a031681565b600654600090819063ffffffff7801000000000000000000000000000000000000000000000000909104811642909116116105bb57600080fd5b600a54604080517f23b872dd0000000000000000000000000000000000000000000000000000000081523360048201523060248201526001608060020a03871660448201529051600160a060020a03909216916323b872dd916064808201926020929091908290030181600087803b15801561063657600080fd5b505af115801561064a573d6000803e3d6000fd5b505050506040513d602081101561066057600080fd5b5051151561066d57600080fd5b610676846109f0565b600c81905591506106878483610bde565b6000908152600d60209081526040808320859055938252600990529190912080543373ffffffffffffffffffffffffffffffffffffffff199182161782556001820180546fffffffffffffffffffffffffffffffff19166001608060020a0396909616959095179094556002018054909316600160a060020a03929092169190911790915550600680547fffffffff00000000ffffffffffffffffffffffffffffffffffffffffffffffff167801000000000000000000000000000000000000000000000000610384420163ffffffff1602179055565b60065460a060020a900463ffffffff1681565b670f43fc2c04ee000081565b600083815260096020526040902060010180546001608060020a039081169091556007546107b49116670e043da617250000610ea5565b6001608060020a0316826001608060020a031610158061080357506007546107ed906001608060020a0316670e043da617250000610ed3565b6001608060020a0316826001608060020a031611155b1561083c57600083815260096020526040902060010180546001608060020a031670010000000000000000000000000000000081021790555b600780546fffffffffffffffffffffffffffffffff19166001608060020a0384161790556006805477ffffffff0000000000000000000000000000000000000000191660a060020a63ffffffff8416021790819055604080517f181783580000000000000000000000000000000000000000000000000000000081529051600160a060020a039092169163181783589160048082019260009290919082900301818387803b1580156108ed57600080fd5b505af1158015610901573d6000803e3d6000fd5b5050506000848152600960205260409020600201805474ff0000000000000000000000000000000000000000191660a060020a17908190557501000000000000000000000000000000000000000000900460ff161590506104375761043783610f16565b600780546001608060020a038084167001000000000000000000000000000000000291161790556000828152600960205260409020600201805475ff00000000000000000000000000000000000000000019167501000000000000000000000000000000000000000000179081905560a060020a900460ff16156109ec576109ec82610f16565b5050565b60006109fa611a01565b610a457f6632393166383539376431373466346161313938336230653237616531363066307f7f78fc7a00000000000000000000000000000000000000000000000000000000611128565b9050610aed6040805190810160405280600381526020017f6765740000000000000000000000000000000000000000000000000000000000815250606060405190810160405280603081526020017f68747470733a2f2f6269746261792e6e65742f4150492f5075626c69632f627481526020017f637573642f7469636b65722e6a736f6e00000000000000000000000000000000815250836111539092919063ffffffff16565b610b6c6040805190810160405280600481526020017f70617468000000000000000000000000000000000000000000000000000000008152506040805190810160405280600481526020017f6c61737400000000000000000000000000000000000000000000000000000000815250836111539092919063ffffffff16565b60408051808201909152600581527f74696d65730000000000000000000000000000000000000000000000000000006020820152610bba908290670de0b6b3a764000063ffffffff61117d16565b610bd781610bd2856001608060020a031660026111a7565b6111c8565b9392505050565b6000610be8611a01565b6000610c357f3531333930376639363935353433376138616330326135643730653562646561307fc5a7f06c00000000000000000000000000000000000000000000000000000000611128565b604080518082018252600881527f656e64706f696e740000000000000000000000000000000000000000000000006020808301919091528251808401909352600583527f707269636500000000000000000000000000000000000000000000000000000090830152919350610cb191849163ffffffff61115316565b610d306040805190810160405280600481526020017f6673796d000000000000000000000000000000000000000000000000000000008152506040805190810160405280600481526020017f4c494e4b00000000000000000000000000000000000000000000000000000000815250846111539092919063ffffffff16565b604080518082018252600581527f7473796d730000000000000000000000000000000000000000000000000000006020808301919091528251808401909352600383527f555344000000000000000000000000000000000000000000000000000000000090830152610daa9184919063ffffffff61115316565b604080518082018252600881527f636f7079506174680000000000000000000000000000000000000000000000006020808301919091528251808401909352600383527f555344000000000000000000000000000000000000000000000000000000000090830152610e249184919063ffffffff61115316565b60408051808201909152600581527f74696d65730000000000000000000000000000000000000000000000000000006020820152610e72908390670de0b6b3a764000063ffffffff61117d16565b610e8a82610bd2876001608060020a031660026111a7565b6000818152600d602052604090209490945550919392505050565b6000610bd7670de0b6b3a76400006001608060020a03858116908516026706f05b59d3b20000015b046111e8565b6000610bd76001608060020a038316600281046001608060020a0316670de0b6b3a76400006001608060020a0316866001608060020a03160201811515610ecd57fe5b600754600082815260096020526040902060010154610f6b91610f5d916001608060020a037001000000000000000000000000000000009283900481169290910416610ea5565b670f43fc2c04ee0000610ea5565b6001608060020a03166008819055600b54610f8591611200565b60008281526009602090815260408083206002015481517f70a082310000000000000000000000000000000000000000000000000000000081523060048201529151600160a060020a03909116936370a0823193602480850194919392918390030190829087803b158015610ff957600080fd5b505af115801561100d573d6000803e3d6000fd5b505050506040513d602081101561102357600080fd5b50511080159061105f575060008181526009602052604081206001015470010000000000000000000000000000000090046001608060020a0316115b1561112557600081815260096020526040902060028101549054600b54600854600160a060020a039384169363a9059cbb93169161109c91611200565b6040518363ffffffff1660e060020a0281526004018083600160a060020a0316600160a060020a0316815260200182815260200192505050602060405180830381600087803b1580156110ee57600080fd5b505af1158015611102573d6000803e3d6000fd5b505050506040513d602081101561111857600080fd5b5051151561112557600080fd5b50565b611130611a01565b611138611a01565b61114a8186868663ffffffff61121716565b95945050505050565b6080830151611168908363ffffffff61126916565b6080830151610437908263ffffffff61126916565b6080830151611192908363ffffffff61126916565b6080830151610437908263ffffffff61128616565b60008082116111b557600080fd5b81838115156111c057fe5b049392505050565b600354600090610bd790600160a060020a031684846112af565b92915050565b806001608060020a03811681146111fb57fe5b919050565b6000818311156112105781610bd7565b5090919050565b61121f611a01565b61122f8560800151610100611563565b5050918352600160a060020a031660208301527bffffffffffffffffffffffffffffffffffffffffffffffffffffffff1916604082015290565b611276826003835161159d565b610437828263ffffffff6116a016565b6000811261129f5761129a8260008361159d565b6109ec565b6109ec826001836000190361159d565b6000306004546040516020018083600160a060020a0316600160a060020a03166c01000000000000000000000000028152601401828152602001925050506040516020818303038152906040526040518082805190602001908083835b6020831061132b5780518252601f19909201916020918201910161130c565b51815160209384036101000a6000190180199092169116179052604080519290940182900390912060045460608a015260008181526005909252838220805473ffffffffffffffffffffffffffffffffffffffff1916600160a060020a038c1617905592519295508594507fb5e6e01e79f91267dc17b4e6314d5d4d03593d2ceee0fbb452b750bd70ea5af99350919050a2600254600160a060020a0316634000aea085846113d9876116ba565b6040518463ffffffff1660e060020a0281526004018084600160a060020a0316600160a060020a0316815260200183815260200180602001828103825283818151815260200191508051906020019080838360005b8381101561144657818101518382015260200161142e565b50505050905090810190601f1680156114735780820380516001836020036101000a031916815260200191505b50945050505050602060405180830381600087803b15801561149457600080fd5b505af11580156114a8573d6000803e3d6000fd5b505050506040513d60208110156114be57600080fd5b5051151561155357604080517f08c379a000000000000000000000000000000000000000000000000000000000815260206004820152602360248201527f756e61626c6520746f207472616e73666572416e6443616c6c20746f206f726160448201527f636c650000000000000000000000000000000000000000000000000000000000606482015290519081900360840190fd5b6004805460010190559392505050565b61156b611a36565b60208206156115805760208206602003820191505b506020828101829052604080518085526000815290920101905290565b601781116115bf576115b98360ff84811660200216831761183b565b50610437565b60ff81116115f3576115e0836018602060ff8616021763ffffffff61183b16565b506115b98382600163ffffffff61185316565b61ffff811161162857611615836019602060ff8616021763ffffffff61183b16565b506115b98382600263ffffffff61185316565b63ffffffff811161165f5761164c83601a602060ff8616021763ffffffff61183b16565b506115b98382600463ffffffff61185316565b67ffffffffffffffff81116104375761168783601b602060ff8616021763ffffffff61183b16565b5061169a8382600863ffffffff61185316565b50505050565b6116a8611a36565b610bd783846000015151848551611874565b8051602080830151604080850151606086810151608088015151935160006024820181815260448301829052606483018a9052600160a060020a03881660848401527bffffffffffffffffffffffffffffffffffffffffffffffffffffffff19861660a484015260c48301849052600160e48401819052610100610104850190815288516101248601528851969b7f40429946000000000000000000000000000000000000000000000000000000009b949a8b9a91999098909796939591949361014401918501908083838e5b8381101561179f578181015183820152602001611787565b50505050905090810190601f1680156117cc5780820380516001836020036101000a031916815260200191505b5060408051601f198184030181529190526020810180517bffffffffffffffffffffffffffffffffffffffffffffffffffffffff167bffffffffffffffffffffffffffffffffffffffffffffffffffffffff19909d169c909c17909b5250989950505050505050505050919050565b611843611a36565b610bd7838460000151518461192a565b61185b611a36565b61186c848560000151518585611975565b949350505050565b61187c611a36565b60008060008551851115151561189157600080fd5b876020015185880111156118bb576118bb886118b38a602001518a89016119d3565b6002026119ea565b8751805188602083010194508089880111156118d75788870182525b60208801935050505b602085106119025781518352601f1990940193602092830192909101906118e0565b505181516020949094036101000a600019018019909116931692909217909152509192915050565b611932611a36565b6020840151831061194e5761194e8485602001516002026119ea565b835180516020858301018481538186141561196a576001820183525b509495945050505050565b61197d611a36565b60008560200151858401111561199c5761199c868685016002026119ea565b6001836101000a03905085518386820101858319825116178152815185880111156119c75784870182525b50959695505050505050565b6000818311156119e45750816111e2565b50919050565b81516119f68383611563565b5061169a83826116a0565b6040805160c081018252600080825260208201819052918101829052606081019190915260808101611a31611a36565b905290565b604080518082019091526060815260006020820152905600a165627a7a723058208115f7e78ffaacae786b93abdfc7693ca31b161fafd0457fa0e8bf17819adfed0029",
  "source": "pragma solidity ^0.4.26;\n\nimport \"./ChainLink.sol\";\n\ncontract BitBay is ChainLink {\n    bytes32 constant UINT256_MUL_JOB = bytes32(\"f291f8597d174f4aa1983b0e27ae160f\"); // CHAINLINK MAINNET\n    // bytes32 constant UINT256_MUL_JOB = bytes32(\"29fa9aa13bf1468788b7cc4a500a45b8\"); // CHAINLINK KOVAN\n    bytes32 constant UINT256_MUL_JOB__LINK = bytes32(\"513907f96955437a8ac02a5d70e5bdea\"); // CRYPTOCOMPARE CHAINLINK MAINNET\n    // bytes32 constant UINT256_MUL_JOB__LINK = bytes32(\"7f350c947b0d4d758aadd5acb41d2474\"); // CRYPTOCOMPARE CHAINLINK KOVAN\n\n    constructor(MedianizerInterface med_, ERC20 link_, address oracle_)\n        public\n        ChainLink(med_, link_, oracle_)\n    {}\n\n    function getAssetPrice(uint128 payment) internal returns (bytes32 queryId) {\n        Chainlink.Request memory req = buildChainlinkRequest(UINT256_MUL_JOB, this, this.returnAssetPrice.selector);\n        req.add(\"get\", \"https://bitbay.net/API/Public/btcusd/ticker.json\");\n        req.add(\"path\", \"last\");\n        req.addInt(\"times\", 1000000000000000000);\n        queryId = sendChainlinkRequest(req, div(payment, 2));\n    }\n\n    function getPaymentTokenPrice(uint128 payment, bytes32 queryId) internal returns (bytes32) {\n        Chainlink.Request memory req = buildChainlinkRequest(UINT256_MUL_JOB__LINK, this, this.returnPaymentTokenPrice.selector);\n        req.add(\"endpoint\", \"price\");\n        req.add(\"fsym\", \"LINK\");\n        req.add(\"tsyms\", \"USD\");\n        req.add(\"copyPath\", \"USD\");\n        req.addInt(\"times\", 1000000000000000000);\n        bytes32 linkId = sendChainlinkRequest(req, div(payment, 2));\n        linkIdToQueryId[linkId] = queryId;\n        return linkId;\n    }\n}\n",
  "sourcePath": "/Users/matthewblack/atomicloans/atomicloans-oracle-contracts/contracts/chainlink/BitBay.sol",
  "compiler": {
    "name": "solc",
    "version": "0.4.26+commit.4563c3fc.Emscripten.clang"
  },
  "schemaVersion": "3.0.11",
  "updatedAt": "2019-10-07T00:17:17.076Z",
  "devdoc": {
    "methods": {}
  },
  "userdoc": {
    "methods": {}
  }
}